:020000040801F1
:1000000000000120F9110108C50F0108CB0F0108FC
:10001000D10F0108D70F0108DD0F01080000000013
:10002000000000000000000000000000E30F0108D5
:10003000F10F010800000000FF0F01080D1001087A
:100040004912010849120108491201081910010852
:100050004912010849120108491201084912010810
:100060004912010849120108491201084912010800
:1000700049120108491201084912010849120108F0
:1000800049120108491201084912010849120108E0
:1000900049120108491201084912010849120108D0
:1000A00049120108491201084912010849120108C0
:1000B0004912010800000000000000004912010878
:1000C0004912010800000000000000004912010868
:1000D0000000000049120108491201080000000058
:1000E0004912010849120108000000000000000048
:1000F0000000000000000000000000000000000000
:10010000000000000000000000000000491201088B
:100110000000000000000000491201084912010817
:10012000491201084912010849120108491201083F
:10013000491201080000000000000000000000005B
:100140004912010849120108491201082D1001083D
:10015000491201084912010849120108491201080F
:100160004912010849120108491201080000000063
:1001700049120108491201080000000000000000B7
:0C01800049120108491201084912010847
:1001900010B5054C237833B9044B13B10448AFF3C1
:1001A00000800123237010BD6003002000000000C8
:1001B00040C2010808B5034B1BB103490348AFF324
:1001C000008008BD000000006403002040C2010858
:1001D000034613F8012B002AFBD1181A0138704787
:1001E00001F0FF01102A2BDB10F0070F08D010F8E8
:1001F000013B013A8B422DD010F0070F42B3F6D1EC
:10020000F0B441EA012141EA014122F007047FF004
:1002100000070023F0E80256083C85EA010586EA5B
:10022000010685FA47F5A3FA87F586FA47F6A5FA97
:1002300087F68EB9EED1F0BC01F0FF0102F00702A3
:1002400032B110F8013B013A83EA010313B1F8D14E
:100250000020704701387047002D06BF354603382F
:10026000073815F0010F07D1013015F4807F02BF68
:10027000013015F4C03F0130F0BC0138704700BFB9
:1002800081F0004102E000BF83F0004330B54FEA47
:1002900041044FEA430594EA050F08BF90EA020FB4
:1002A0001FBF54EA000C55EA020C7FEA645C7FEA47
:1002B000655C00F0E2804FEA5454D4EB5555B8BF6A
:1002C0006D420CDD2C4480EA020281EA030382EADB
:1002D000000083EA010180EA020281EA0303362D6D
:1002E00088BF30BD11F0004F4FEA01314FF4801C40
:1002F0004CEA113102D0404261EB410113F0004F52
:100300004FEA03334CEA133302D0524263EB430308
:1003100094EA050F00F0A780A4F10104D5F1200EA6
:100320000DDB02FA0EFC22FA05F2801841F1000101
:1003300003FA0EF2801843FA05F359410EE0A5F1D5
:1003400020050EF1200E012A03FA0EFC28BF4CF006
:10035000020C43FA05F3C01851EBE37101F00045BC
:1003600007D54FF0000EDCF1000C7EEB00006EEBC9
:100370000101B1F5801F1BD3B1F5001F0CD3490853
:100380005FEA30004FEA3C0C04F101044FEA4452AA
:1003900012F5800F80F09A80BCF1004F08BF5FEA31
:1003A000500C50F1000041EB045141EA050130BD11
:1003B0005FEA4C0C404141EB0101013C28BFB1F523
:1003C000801FE9D291F0000F04BF01460020B1FA6E
:1003D00081F308BF2033A3F10B03B3F120020CDA41
:1003E0000C3208DD02F1140CC2F10C0201FA0CF01F
:1003F00021FA02F10CE002F11402D8BFC2F1200C84
:1004000001FA02F120FA0CFCDCBF41EA0C01904039
:10041000E41AA2BF01EB0451294330BD6FEA040482
:100420001F3C1CDA0C340EDC04F11404C4F120026D
:1004300020FA04F001FA02F340EA030021FA04F37F
:1004400045EA030130BDC4F10C04C4F1200220FAD6
:1004500002F001FA04F340EA0300294630BD21FA14
:1004600004F0294630BD94F0000F83F4801306BFDA
:1004700081F480110134013D4EE77FEA645C18BFCE
:100480007FEA655C29D094EA050F08BF90EA020F65
:1004900005D054EA000C04BF1946104630BD91EA5D
:1004A000030F1EBF0021002030BD5FEA545C05D160
:1004B0004000494128BF41F0004130BD14F580049F
:1004C0003CBF01F5801130BD01F0004545F0FE4113
:1004D00041F470014FF0000030BD7FEA645C1ABF48
:1004E000194610467FEA655C1CBF0B46024650EA7F
:1004F000013406BF52EA033591EA030F41F40021AB
:1005000030BD00BF90F0000F04BF0021704730B530
:100510004FF4806404F132044FF000054FF0000105
:1005200050E700BF90F0000F04BF0021704730B5C6
:100530004FF4806404F1320410F0004548BF40429B
:100540004FF000013EE700BF42004FEAE2014FEAF0
:1005500031014FEA02701FBF12F07F4393F07F4FCB
:1005600081F06051704732F07F4208BF704793F0CE
:100570007F4F04BF41F40021704730B54FF46074E1
:1005800001F0004521F000411CE700BF50EA0102E4
:1005900008BF704730B54FF000050AE050EA01028D
:1005A00008BF704730B511F0004502D5404261EBFD
:1005B00041014FF4806404F132045FEA915C3FF43E
:1005C000D8AE4FF003025FEADC0C18BF03325FEADB
:1005D000DC0C18BF033202EBDC02C2F1200300FA8C
:1005E00003FC20FA02F001FA03FE40EA0E0021FAB1
:1005F00002F11444BDE600BF70B54FF0FF0C4CF49F
:10060000E06C1CEA11541DBF1CEA135594EA0C0F50
:1006100095EA0C0F00F0DEF82C4481EA030621EA8B
:100620004C5123EA4C5350EA013518BF52EA0335C6
:1006300041F4801143F4801338D0A0FB02CE4FF078
:100640000005E1FB02E506F00042E0FB03E54FF0A8
:100650000006E1FB03569CF0000F18BF4EF0010EA0
:10066000A4F1FF04B6F5007F64F5407404D25FEA9C
:100670004E0E6D4146EB060642EAC62141EA55514F
:100680004FEAC52040EA5E504FEACE2EB4F1FD0C91
:1006900088BFBCF5E06F1ED8BEF1004F08BF5FEA0F
:1006A000500E50F1000041EB045170BD06F00046C1
:1006B00046EA010140EA020081EA0301B4EB5C046E
:1006C000C2BFD4EB0C0541EA045170BD41F4801166
:1006D0004FF0000E013C00F3AB8014F1360FDEBF8B
:1006E000002001F0004170BDC4F10004203C35DA67
:1006F0000C341BDC04F11404C4F1200500FA05F3EA
:1007000020FA04F001FA05F240EA020001F000428A
:1007100021F0004110EBD37021FA04F642EB060100
:100720005EEA430E08BF20EAD37070BDC4F10C042A
:10073000C4F1200500FA04F320FA05F001FA04F2EE
:1007400040EA020001F0004110EBD37041F10001DA
:100750005EEA430E08BF20EAD37070BDC4F12005E5
:1007600000FA05F24EEA020E20FA04F301FA05F24D
:1007700043EA020321FA04F001F0004121FA04F2F5
:1007800020EA020000EBD3705EEA430E08BF20EAC5
:10079000D37070BD94F0000F0FD101F000464000FF
:1007A00041EB010111F4801F08BF013CF7D041EA81
:1007B000060195F0000F18BF704703F00046520085
:1007C00043EB030313F4801F08BF013DF7D043EA56
:1007D0000603704794EA0C0F0CEA135518BF95EA0C
:1007E0000C0F0CD050EA410618BF52EA4306D1D193
:1007F00081EA030101F000414FF0000070BD50EAB2
:10080000410606BF1046194652EA430619D094EA3B
:100810000C0F02D150EA013613D195EA0C0F05D125
:1008200052EA03361CBF104619460AD181EA030179
:1008300001F0004141F0FE4141F470014FF0000031
:1008400070BD41F0FE4141F4780170BD70B54FF0CC
:10085000FF0C4CF4E06C1CEA11541DBF1CEA13554C
:1008600094EA0C0F95EA0C0F00F0A7F8A4EB05042E
:1008700081EA030E52EA03354FEA013100F0888025
:100880004FEA03334FF0805545EA131343EA1263EE
:100890004FEA022245EA111545EA10654FEA0026A3
:1008A0000EF000419D4208BF964244F1FD0404F55C
:1008B000407402D25B084FEA3202B61A65EB0305B8
:1008C0005B084FEA32024FF480104FF4002CB6EB75
:1008D000020E75EB030E22BFB61A754640EA0C00F5
:1008E0005B084FEA3202B6EB020E75EB030E22BF35
:1008F000B61A754640EA5C005B084FEA3202B6EB76
:10090000020E75EB030E22BFB61A754640EA9C0034
:100910005B084FEA3202B6EB020E75EB030E22BF04
:10092000B61A754640EADC0055EA060E18D04FEAC2
:10093000051545EA16754FEA06164FEAC30343EA62
:1009400052734FEAC2025FEA1C1CC0D111F4801F2F
:100950000BD141EA00014FF000004FF0004CB6E728
:1009600011F4801F04BF01430020B4F1FD0C88BFC7
:10097000BCF5E06F3FF6AFAEB5EB030C04BFB6EBD2
:10098000020C5FEA500C50F1000041EB045170BDC5
:100990000EF0004E4EEA113114EB5C04C2BFD4EBF2
:1009A0000C0541EA045170BD41F480114FF0000E76
:1009B000013C90E645EA060E8DE60CEA135594EAF2
:1009C0000C0F08BF95EA0C0F3FF43BAF94EA0C0FF5
:1009D0000AD150EA01347FF434AF95EA0C0F7FF46A
:1009E00025AF104619462CE795EA0C0F06D152EABE
:1009F00003353FF4FDAE1046194622E750EA4106A2
:100A000018BF52EA43067FF4C5AE50EA41047FF4B2
:100A10000DAF52EA43057FF4EBAE12E74FF0FF3C17
:100A200006E000BF4FF0010C02E000BF4FF0010CE8
:100A30004DF804CD4FEA410C7FEA6C5C4FEA430C61
:100A400018BF7FEA6C5C1BD001B050EA410C0CBFB0
:100A500052EA430C91EA030F02BF90EA020F002012
:100A6000704710F1000F91EA030F58BF994208BF79
:100A700090422CBFD8176FEAE37040F00100704736
:100A80004FEA410C7FEA6C5C02D150EA013C07D18D
:100A90004FEA430C7FEA6C5CD6D152EA033CD3D0D8
:100AA0005DF8040B704700BF8446104662468C46D2
:100AB0001946634600E000BF01B5FFF7B7FF002805
:100AC00048BF10F1000F01BD4DF808EDFFF7F4FF2E
:100AD0000CBF012000205DF808FB00BF4DF808EDB9
:100AE000FFF7EAFF34BF012000205DF808FB00BFDC
:100AF0004DF808EDFFF7E0FF94BF012000205DF8FE
:100B000008FB00BF4DF808EDFFF7CEFF94BF0120B2
:100B100000205DF808FB00BF4DF808EDFFF7C4FFAB
:100B200034BF012000205DF808FB00BF4FEA410CF4
:100B30007FEA6C5C02D150EA013C0AD14FEA430CD7
:100B40007FEA6C5C02D152EA033C02D14FF0000014
:100B500070474FF0010070474FEA410212F5001252
:100B600015D211D56FF47873B3EB625212D94FEAF4
:100B7000C12343F0004343EA505311F0004F23FADE
:100B800002F018BF404270474FF00000704750EA33
:100B9000013005D111F0004008BF6FF000407047F0
:100BA0004FF00000704700BF80B584B000AF00F088
:100BB0004CFB00F051F800F023F900F0B1F800F020
:100BC000C3F808F06BF8224B1F229A61214B1B6877
:100BD000DB68DAB21F4B1B6862F49062DA600023B4
:100BE000FB600CE04FF480714FF0904000F05AFE33
:100BF0004FF4967000F09EFBFB680133FB60FB68CE
:100C0000032BEFDD0A237B607B6804221946114821
:100C100004F032F80346002B01D000F03DF940F615
:100C2000B83000F087FB0023BB600BE04FF480710D
:100C30004FF0904000F036FE642000F07BFBBB6874
:100C40000133BB60BB68032BF0DD02F0E1FBFEE784
:100C5000007000408C03002080B596B000AF07F113
:100C6000140344220021184608F0CAFD3B46002226
:100C70001A605A609A60DA601A614FF4007002F0EC
:100C8000EFFB0346002B01D000F006F902F0B0FBA9
:100C9000224BD3F89030214A23F01803C2F8903049
:100CA00034237B610123FB610123BB630123FB62CE
:100CB00000233B6360237B630223FB6301233B64CC
:100CC00001237B642823BB640723FB6402233B6569
:100CD00002237B6507F11403184602F027FC034644
:100CE000002B01D000F0D8F80F233B6003237B607A
:100CF0000023BB600023FB6000233B613B460421D3
:100D0000184603F027F80346002B01D000F0C4F882
:100D100003F002FC00BF5837BD4680BD0010024002
:100D200080B500AF064B074A1A60054803F0F6FC91
:100D30000346002B01D000F0AFF800BF80BD00BF1C
:100D40007C0300200008065080B586B000AF3B1D34
:100D500000221A605A609A60DA601A6100233B60D0
:100D6000254B264A1A60244B00225A60224B7F22D0
:100D70009A60214BFF22DA601F4B00221A611E4B42
:100D800000225A611C4B00229A611B4B0022DA613F
:100D9000194803F01AFD0346002B01D000F07CF83F
:100DA00000233B7100237B710023BB7100233B6157
:100DB00000237B613B1D012219460F4803F080FD93
:100DC0000346002B01D000F067F801233B7001239C
:100DD0007B700123BB700023FB703B460122194648
:100DE000054803F00AFE0346002B01D000F054F83A
:100DF00000BF1837BD4680BD8C030020002800408E
:100E000080B588B000AF07F10C0300221A605A6069
:100E10009A60DA601A611F4BDB6C1E4A43F00403D0
:100E2000D3641C4BDB6C03F00403BB60BB68194B41
:100E3000DB6C184A43F00103D364164BDB6C03F000
:100E400001037B607B68134BDB6C124A43F00203A7
:100E5000D364104BDB6C03F002033B603B68002261
:100E60004FF480714FF0904000F004FD4FF4807318
:100E7000FB6001233B6100237B610023BB6107F121
:100E80000C0319464FF0904000F08AFB00BF20375A
:100E9000BD4680BD0010024080B400AF72B600BFF6
:100EA000FEE7000080B483B000AF0F4B1B6E0E4A0C
:100EB00043F0010313660C4B1B6E03F001037B60D0
:100EC0007B68094B9B6D084A43F080539365064B42
:100ED0009B6D03F080533B603B6800BF0C37BD4601
:100EE0005DF8047B704700BF0010024080B598B0E9
:100EF00000AF786007F10C0354220021184608F077
:100F00007FFC7B681B68114A93421AD14FF48023FF
:100F1000FB6000233B6507F10C03184603F006F95C
:100F20000346002B01D0FFF7B7FF094BDB6C084AE3
:100F300043F48023D364064BDB6C03F48023BB6053
:100F4000BB6800BF6037BD4680BD00BF00080650CB
:100F50000010024080B598B000AF786007F10C0334
:100F600054220021184608F04BFC7B681B68134A8A
:100F700093421FD14FF40033FB604FF48073FB6545
:100F800007F10C03184603F0D1F80346002B01D0FB
:100F9000FFF782FF0A4BD3F89030094A43F400432D
:100FA000C2F8903000220021032000F0C2FA032092
:100FB00000F0DBFA00BF6037BD4680BD002800406E
:100FC0000010024080B400AFFEE780B400AFFEE73F
:100FD00080B400AFFEE780B400AFFEE780B400AF9E
:100FE000FEE780B400AF00BFBD465DF8047B7047EC
:100FF00080B400AF00BFBD465DF8047B704780B48D
:1010000000AF00BFBD465DF8047B704780B500AF00
:1010100000F070F900BF80BD80B500AF024803F05A
:10102000BFFE00BF80BD00BF8C03002080B500AFB5
:10103000024800F08AFD00BF80BD00BF5C100020A8
:1010400080B400AF01231846BD465DF8047B7047AD
:1010500080B582B000AF7860396008F0A7FB034626
:1010600016221A604FF0FF3318460837BD4680BD80
:1010700080B582B000AF78604FF0FF317868FFF73D
:10108000E7FFFEE780B586B000AFF860B9607A6030
:1010900000237B610AE0AFF300800146BB685A1C65
:1010A000BA60CAB21A707B6901337B617A697B6866
:1010B0009A42F0DB7B6818461837BD4680BD80B584
:1010C00086B000AFF860B9607A6000237B6109E008
:1010D000BB685A1CBA601B781846AFF300807B6966
:1010E00001337B617A697B689A42F1DB7B68184641
:1010F0001837BD4680BD80B483B000AF78604FF034
:10110000FF3318460C37BD465DF8047B704780B44A
:1011100083B000AF786039603B684FF400525A608A
:10112000002318460C37BD465DF8047B704780B439
:1011300083B000AF7860012318460C37BD465DF8D8
:10114000047B704780B485B000AFF860B9607A6006
:10115000002318461437BD465DF8047B7047000035
:1011600080B586B000AF7860144A154BD31A7B6106
:101170007B693B61134B1B68002B02D1114B124A58
:101180001A60104B1A687B6813443A699A4207D276
:1011900008F00CFB03460C221A604FF0FF3309E005
:1011A000084B1B68FB60074B1A687B681344054AB1
:1011B0001360FB6818461837BD4680BD000001204B
:1011C00000040000B00300208815002080B400AFA8
:1011D000074B084A9A60064BD3F88830044A43F418
:1011E0007003C2F8883000BFBD465DF8047B7047CD
:1011F00000ED00E000000108DFF834D0FFF7E6FF63
:101200000C480D490D4A002302E0D458C450043361
:10121000C4188C42F9D30A4A0A4C002301E0136037
:101220000432A242FBD308F0C7FAFFF7BDFCFEE789
:10123000000001200000002060030020C4C6010857
:101240006003002088150020FEE780B582B000AF63
:101250000023FB71032000F061F90F2000F00EF86D
:101260000346002B02D00123FB7101E0FFF71AFEB9
:10127000FB7918460837BD4680BD000080B584B0B4
:1012800000AF78600023FB73174B1B78002B23D033
:10129000164B1A68144B1B7819464FF47A73B3FB3C
:1012A000F1F3B2FBF3F3184600F06DF90346002B9F
:1012B0000FD17B680F2B09D8002279684FF0FF30DF
:1012C00000F037F90A4A7B68136007E00123FB73DB
:1012D00004E00123FB7301E00123FB73FB7B184651
:1012E0001037BD4680BD00BF080000200000002070
:1012F0000400002080B400AF064B1B781A46064B52
:101300001B681344044A136000BFBD465DF8047BAC
:10131000704700BF08000020B403002080B400AF75
:10132000034B1B681846BD465DF8047B704700BF41
:10133000B403002080B584B000AF7860FFF7EEFF03
:10134000B8607B68FB60FB68B3F1FF3F05D00A4BD8
:101350001B781A46FB681344FB6000BFFFF7DEFFF3
:101360000246BB68D31AFA689A42F7D800BF00BF9A
:101370001037BD4680BD00BF0800002080B485B096
:1013800000AF78607B6803F00703FB600C4BDB6801
:10139000BB60BA684FF6FF031340BB60FB681A02DC
:1013A000BB68134343F0BF6343F40033BB60044A9C
:1013B000BB68D36000BF1437BD465DF8047B70473F
:1013C00000ED00E080B400AF044BDB681B0A03F0C3
:1013D00007031846BD465DF8047B704700ED00E04A
:1013E00080B483B000AF0346FB7197F90730002B40
:1013F0000BDBFB7903F01F02074997F907305B0904
:10140000012000FA02F241F8232000BF0C37BD464C
:101410005DF8047B704700BF00E100E080B483B05A
:1014200000AF03463960FB7197F90730002B0ADBE8
:101430003B68DAB20C4997F907301201D2B20B447B
:1014400083F800230AE03B68DAB20849FB7903F02D
:101450000F03043B1201D2B20B441A7600BF0C37C3
:10146000BD465DF8047B704700E100E000ED00E060
:1014700080B489B000AFF860B9607A60FB6803F0AF
:101480000703FB61FB69C3F10703042B28BF042397
:10149000BB61FB690433062B02D9FB69033B00E007
:1014A00000237B614FF0FF32BB6902FA03F3DA439A
:1014B000BB681A407B699A404FF0FF317B6901FAA3
:1014C00003F3D9437B680B40134318462437BD46CA
:1014D0005DF8047B7047000080B582B000AF786093
:1014E0007B68013BB3F1807F01D301230FE00A4AFF
:1014F0007B68013B53600F214FF0FF30FFF78EFFF9
:10150000054B00229A60044B07221A6000231846FC
:101510000837BD4680BD00BF10E000E080B582B056
:1015200000AF78607868FFF729FF00BF0837BD4635
:1015300080BD80B586B000AF0346B9607A60FB73AA
:1015400000237B61FFF73EFF78617A68B9687869AC
:10155000FFF78EFF024697F90F3011461846FFF746
:101560005DFF00BF1837BD4680BD80B582B000AFBB
:101570000346FB7197F907301846FFF731FF00BFAC
:101580000837BD4680BD80B582B000AF786078680E
:10159000FFF7A2FF034618460837BD4680BD00008E
:1015A00080B487B000AF7860396000237B6148E188
:1015B0003B681A6801217B6901FA03F31340FB6061
:1015C000FB68002B00F03A813B685B6803F0030383
:1015D000012B05D03B685B6803F00303022B30D17D
:1015E0007B689B683B617B695B00032202FA03F323
:1015F000DB433A6913403B613B68DA687B695B0017
:1016000002FA03F33A6913433B617B683A699A60D3
:101610007B685B683B6101227B6902FA03F3DB4371
:101620003A6913403B613B685B681B0903F00102A8
:101630007B6902FA03F33A6913433B617B683A69B9
:101640005A603B685B6803F00303032B17D07B6889
:10165000DB683B617B695B00032202FA03F3DB4337
:101660003A6913403B613B689A687B695B0002FA08
:1016700003F33A6913433B617B683A69DA603B687C
:101680005B6803F00303022B23D17B69DA087B68D4
:10169000083253F822303B617B6903F007039B005B
:1016A0000F2202FA03F3DB433A6913403B613B68C4
:1016B0001A697B6903F007039B0002FA03F33A6996
:1016C00013433B617B69DA087B680832396943F868
:1016D00022107B681B683B617B695B00032202FA76
:1016E00003F3DB433A6913403B613B685B6803F0FB
:1016F00003027B695B0002FA03F33A6913433B611F
:101700007B683A691A603B685B6803F44033002BDE
:1017100000F09480524B1B6E514A43F00103136654
:101720004F4B1B6E03F00103BB60BB684D4A7B69E6
:101730009B08023352F823303B617B6903F00303BB
:101740009B000F2202FA03F3DB433A6913403B612B
:101750007B68B3F1904F0DD07B68434A934207D02A
:101760007B68424A934201D1022304E0072302E04E
:10177000012300E000237A6902F003029200934003
:101780003A6913433B6137497B699B0802333A69E5
:1017900041F82320364B9B683B61FB68DB433A6989
:1017A00013403B613B685B6803F48013002B03D05C
:1017B0003A69FB6813433B612D4A3B6993602C4BAC
:1017C000DB683B61FB68DB433A6913403B613B6884
:1017D0005B6803F40013002B03D03A69FB681343E2
:1017E0003B61234A3B69D360214B5B683B61FB68EB
:1017F000DB433A6913403B613B685B6803F40033A9
:10180000002B03D03A69FB6813433B61184A3B69DC
:101810005360174B1B683B61FB68DB433A6913401D
:101820003B613B685B6803F48033002B03D03A696B
:10183000FB6813433B610E4A3B6913607B690133CC
:101840007B613B681A687B6922FA03F3002B7FF403
:10185000AFAE00BF00BF1C37BD465DF8047B7047CC
:101860000010024000000140000400480008004849
:101870000004014080B483B000AF78600B467B80E9
:1018800013467B707B78002B03D07A887B689A6143
:1018900002E07A887B689A6200BF0C37BD465DF82B
:1018A000047B704780B485B000AF78600B467B80C6
:1018B0007B685B69FB607A88FB6813401A04FB68ED
:1018C000D9437B880B401A437B689A6100BF143769
:1018D000BD465DF8047B7047F0B58BB006AF78600D
:1018E0007B68002B01D1012309E17B6893F8AD32BD
:1018F000DBB2002B06D17B68002283F8AC2278682B
:1019000007F0BEFB7B68032283F8AD227B681B686F
:10191000184603F09DFA7B681B683B607E686D4645
:1019200006F110040FCC0FC594E8030085E803000E
:10193000331D0ECB386803F063FA0346002B05D045
:101940007B68022283F8AD220123D8E07B681B6804
:101950000021184603F097FA0023FB734DE0FB7B50
:1019600079685A1C13469B001344DB000B44053373
:1019700001221A70FB7B79685A1C13469B001344A2
:10198000DB000B440433FA7B1A70FA7BFB7B98B2C2
:10199000796813469B001344DB000B443A3302463C
:1019A0001A80FB7B79685A1C13469B001344DB00AA
:1019B0000B44073300221A70FA7B796813469B00A8
:1019C0001344DB000B443C3300221A60FA7B796835
:1019D00013469B001344DB000B44403300221A6083
:1019E000FA7B796813469B001344DB000B444433B5
:1019F00000221A60FB7B0133FB73FA7B7B685B6818
:101A00009A42ACD30023FB7344E0FA7B7968134617
:101A10009B001344DB000B4403F26D1300221A7089
:101A2000FA7B796813469B001344DB000B4403F5F3
:101A3000B673FA7B1A70FA7B796813469B001344DD
:101A4000DB000B4403F26F1300221A70FA7B7968F3
:101A500013469B001344DB000B4403F5BE730022C6
:101A60001A60FA7B796813469B001344DB000B4431
:101A700003F5C07300221A60FA7B796813469B0055
:101A80001344DB000B4403F5C27300221A60FB7B96
:101A90000133FB73FA7B7B685B689A42B5D37B6842
:101AA0001B683B607E686D4606F110040FCC0FC5C5
:101AB00094E8030085E80300331D0ECB386803F07B
:101AC000EFF90346002B05D07B68022283F8AD2294
:101AD000012314E07B68002283F828207B68012220
:101AE00083F8AD227B68DB69012B02D1786801F0B5
:101AF00055FC7B681B68184605F0FBFB0023184665
:101B00001437BD46F0BD80B582B000AF78607B6809
:101B100093F8AC32012B01D1022312E07B68012241
:101B200083F8AC227B681B68184603F07AF97B685F
:101B30001B68184605F0C6FB7B68002283F8AC22C0
:101B4000002318460837BD4680BD80B584B000AF7D
:101B500078607B681B68184605F0E0FBF860FB685E
:101B600003F40043002B03D0786800F03EFB10E143
:101B7000FB6803F48063002B13D07B681B68B3F809
:101B800044309AB27B681B6822F4806292B2A3F858
:101B90004420786807F005FB0021786800F0FCF825
:101BA000F7E0FB6803F48043002B0CD07B681B68D4
:101BB000B3F844309AB27B681B6822F4804292B238
:101BC000A3F84420E5E0FB6803F40053002B0CD09D
:101BD0007B681B68B3F844309AB27B681B6822F4B8
:101BE000005292B2A3F84420D3E0FB6803F4805380
:101BF000002B34D07B681B68B3F840309AB27B6806
:101C00001B6822F0040292B2A3F840207B681B6894
:101C1000B3F840309AB27B681B6822F0080292B297
:101C2000A3F840207B6893F8E432012B07D17B684E
:101C3000002283F8E4220021786807F063FD7868C9
:101C400007F0E8FA7B681B68B3F844309AB27B6807
:101C50001B6822F4805292B2A3F8442099E0FB68FA
:101C600003F40063002B27D07B681B68B3F8403077
:101C70009AB27B681B6842F0080292B2A3F8402037
:101C80007B681B68B3F844309AB27B681B6822F407
:101C9000006292B2A3F844207B681B68B3F840301E
:101CA0009AB27B681B6842F0040292B2A3F840200B
:101CB000786807F095FA6CE0FB6803F08003002B6E
:101CC00040D07B681B68B3F844309AB27B681B68CD
:101CD00022F0800292B2A3F844207B6893F8E432A9
:101CE000002B2BD17B681B68B3F840309AB27B681D
:101CF0001B6842F0040292B2A3F840207B681B6884
:101D0000B3F840309AB27B681B6842F0080292B286
:101D1000A3F840207B68012283F8E4227B681B68DB
:101D2000B3F854309BB29B0803F03C027B68C3F8C5
:101D3000E8220121786807F0E5FC2AE0786807F0DE
:101D40004FFA26E0FB6803F40073002B0FD07B688A
:101D50001B68B3F844309AB27B681B6822F40072A7
:101D600092B2A3F84420786807F00DFA11E0FB68FE
:101D700003F48073002B0CD07B681B68B3F84430ED
:101D80009AB27B681B6822F4807292B2A3F8442056
:101D900000BF1037BD4680BD80B582B000AF78600F
:101DA0000B46FB707B6893F8AC32012B01D1022308
:101DB00013E07B68012283F8AC227B68FA7883F811
:101DC00028207B681B68FA781146184605F066FAE9
:101DD0007B68002283F8AC22002318460837BD46F2
:101DE00080BD80B584B000AF7860084611461A46C1
:101DF0000346FB700B463B801346BB700023FB720F
:101E000097F90330002B0FDAFB7803F007035A1C15
:101E100013469B001344DB007A6813440433FB60D1
:101E2000FB6801225A700FE0FB7803F007021346AB
:101E30009B001344DB0003F5B4737A681344043346
:101E4000FB60FB6800225A70FB7803F00703DAB2EC
:101E5000FB681A703A88FB681A61FB68BA78DA7016
:101E6000FB685B78002B04D0FB681B789AB2FB6898
:101E7000DA81BB78022B02D1FB6800221A717B68E1
:101E800093F8AC32012B01D102230EE07B680122D2
:101E900083F8AC227B681B68F968184603F022F8C7
:101EA0007B68002283F8AC22FB7A18461037BD46C7
:101EB00080BD80B584B000AF78600B46FB7097F9A9
:101EC0000330002B0FDAFB7803F007035A1C13468C
:101ED0009B001344DB007A6813440433FB60FB6807
:101EE00001225A700FE0FB7803F0070213469B00B3
:101EF0001344DB0003F5B4737A6813440433FB60C6
:101F0000FB6800225A70FB7803F00703DAB2FB6823
:101F10001A707B6893F8AC32012B01D102230EE0DA
:101F20007B68012283F8AC227B681B68F96818463D
:101F300003F092FB7B68002283F8AC220023184652
:101F40001037BD4680BD80B586B000AFF8607A60BE
:101F50003B600B46FB72FB7A03F0070213469B00C3
:101F60001344DB0003F5B473FA68134404337B6154
:101F70007B697A685A617B693A689A617B69002259
:101F8000DA617B6900225A70FB7A03F00703DAB248
:101F90007B691A70FB7A03F00703002B06D1FB68FC
:101FA0001B687969184603F044FD05E0FB681B686F
:101FB0007969184603F03DFD002318461837BD46E1
:101FC00080BD80B483B000AF78600B46FB70FB78B7
:101FD00003F00702796813469B001344DB000B44AF
:101FE00003F5C4731B6818460C37BD465DF8047BC7
:101FF000704780B586B000AFF8607A603B600B46F2
:10200000FB72FB7A03F007035A1C13469B00134430
:10201000DB00FA68134404337B617B697A685A6198
:102020007B693A689A617B69012283F824207B6985
:102030003A681A627B690022DA617B6901225A7070
:10204000FB7A03F00703DAB27B691A70FB7A03F0BC
:102050000703002B06D1FB681B687969184603F05B
:10206000E8FC05E0FB681B687969184603F0E1FCB1
:10207000002318461837BD4680BD80B584B000AF38
:1020800078600B46FB70FB7803F007027B685B68A7
:102090009A4201D901234EE097F90330002B0FDA61
:1020A000FB7803F007035A1C13469B001344DB0024
:1020B0007A6813440433FB60FB6801225A700DE018
:1020C000FA7813469B001344DB0003F5B4737A6877
:1020D00013440433FB60FB6800225A70FB68012242
:1020E0009A70FB7803F00703DAB2FB681A707B681A
:1020F00093F8AC32012B01D102231CE07B68012252
:1021000083F8AC227B681B68F968184604F0C7FFA7
:10211000FB7803F00703002B08D17B681A687B6803
:1021200003F52D731946104605F008F97B68002267
:1021300083F8AC22002318461037BD4680BD80B519
:1021400084B000AF78600B46FB70FB7803F00F02A1
:102150007B685B689A4201D9012342E097F903301A
:10216000002B0FDAFB7803F007035A1C13469B0081
:102170001344DB007A6813440433FB60FB680122DC
:102180005A700FE0FB7803F0070213469B001344DC
:10219000DB0003F5B4737A6813440433FB60FB6817
:1021A00000225A70FB6800229A70FB7803F0070344
:1021B000DAB2FB681A707B6893F8AC32012B01D15C
:1021C00002230EE07B68012283F8AC227B681B6847
:1021D000F968184604F0B4FF7B68002283F8AC224B
:1021E000002318461037BD4680BD80B596B000AFBD
:1021F0007860A9E37B681B68B3F84430A7F85630D1
:10220000B7F85630DBB203F00F0387F8553097F874
:102210005530002B40F06981B7F8563003F01003B9
:10222000002B50D17B681B681B889BB223F4E143D1
:1022300023F07003FB817B681A68FB896FEA4343D4
:102240006FEA53439BB213807B682C33FB647B683B
:102250001B68B3F850309BB21A46FB6C1B78DB004E
:1022600013447A681268134403F202431B88C3F3D1
:102270000902FB6CDA61FB6C5A69FB6CDB691A447E
:10228000FB6C5A610021786806F063FF7B6893F865
:102290002830DBB2002B00F05783FB6C9B69002BCE
:1022A00040F052837B6893F82830DBB263F07F0301
:1022B000DAB27B681B6892B2A3F84C207B680022DC
:1022C00083F8282040E37B6803F5B673FB647B68E2
:1022D0001B681B88A7F85230B7F8523003F400632C
:1022E000002B32D07B681B68B3F850309BB21A4683
:1022F000FB6C1B78DB0013447A681268134403F20A
:1023000006431B88C3F30902FB6CDA617B6818681B
:102310007B6803F52D71FB6CDA88FB6CDB699BB283
:1023200005F05AF87B681B681B889AB240F68F73D9
:1023300013403B827B681B683A8A42F0800292B26B
:102340001A80786806F0D8FEFEE2B7F95230002B0A
:1023500080F2FA827B681B681B889AB240F68F7302
:102360001340FB837B681B68FA8B42F0800292B2B9
:102370001A807B681B68B3F850309BB21A46FB6C1E
:102380001B78DB0013447A681268134403F2064397
:102390001B88C3F30902FB6CDA61FB6CDB69002B61
:1023A00019D0FB6C5B69002B15D07B681868FB6C3F
:1023B0005969FB6CDA88FB6CDB699BB205F00CF8A1
:1023C000FB6C5A69FB6CDB691A44FB6C5A61002197
:1023D000786806F0A3FE7B681B681B88A7F852305C
:1023E000B7F8523003F40063002B40F0AD82B7F829
:1023F000523003F44053B3F5405F00F0A5827B6890
:102400001B68BB617B681B68B3F850309BB21A46EF
:10241000BB691344BB61BB6903F206437B61FB6C80
:102420001B693E2B18D9FB6C1B695B097B64FB6C39
:102430001B6903F01F03002B02D17B6C013B7B6403
:102440007B6C9BB29B029BB26FEA43436FEA5343A0
:102450009AB27B691A8029E0FB6C1B69002B12D1B0
:102460007B691B889BB223F4F8439AB27B691A807C
:102470007B691B889BB26FEA43436FEA53439AB26E
:102480007B691A8012E0FB6C1B695B087B64FB6C48
:102490001B6903F00103002B02D07B6C01337B64CA
:1024A0007B6C9BB29B029AB27B691A807B681B682B
:1024B0001B889BB223F4804323F070037B827B8ACA
:1024C00083F480537B827B8A83F400537B827B6816
:1024D0001A687B8A43F07F4343F47F0343F400434D
:1024E00043F080039BB213802EE27B681B681A4680
:1024F00097F855309B0013441B88A7F85230B7F962
:102500005230002B80F2F7807B681B681A4697F8E0
:1025100055309B0013441B889AB240F68F731340CA
:10252000A7F850307B681B681A4697F855309B0017
:102530001344B7F8502042F0800292B21A8097F804
:10254000552013469B001344DB0003F5B4737A68EF
:1025500013440433FB64FB6C1B7B002B23D17B688F
:102560001B68B3F850309BB21A46FB6C1B78DB003B
:1025700013447A681268134403F206431B88C3F3BA
:102580000903A7F84830B7F84830002B00F08E80D8
:102590007B681868FB6C5969FB6CDA88B7F84830BF
:1025A00004F01AFF82E0FB6CDB78022B0AD1B7F84B
:1025B00052301A46F96C786800F0D4F90346A7F84F
:1025C000483073E07B681B681A46FB6C1B789B00E5
:1025D00013441B889BB223F4E04323F07003A7F855
:1025E0004A307B681B681A46FB6C1B789B001A44B8
:1025F000B7F84A3043F07F4343F47F0343F400438A
:1026000043F0C0039BB213807B681B681A46FB6CC7
:102610001B789B0013441B889BB203F48043002B60
:1026200022D07B681B68B3F850309BB21A46FB6C13
:102630001B78DB0013447A681268134403F20243E8
:102640001B88C3F30903A7F84830B7F84830002BBC
:102650002CD07B681868FB6C5969FB6C1A89B7F839
:10266000483004F0B9FE21E07B681B68B3F85030B5
:102670009BB21A46FB6C1B78DB0013447A68126825
:10268000134403F206431B88C3F30903A7F8483039
:10269000B7F84830002B09D07B681868FB6C596983
:1026A000FB6C5A89B7F8483004F096FEFB6CDA6987
:1026B000B7F848301A44FB6CDA61FB6C5A69B7F81A
:1026C00048301A44FB6C5A61FB6C9B69002B05D0A7
:1026D000B7F84820FB6C1B699A4206D2FB6C1B784A
:1026E0001946786806F01AFD05E07B681B68F96CEE
:1026F000184603F09EF9B7F8523003F08003002B20
:1027000000F0228197F855305A1C13469B00134461
:10271000DB007A6813440433FB647B681B681A4649
:1027200097F855309B0013441B889BB223F4E14378
:1027300023F07003A7F842307B681B681A4697F8AD
:1027400055309B001A44B7F842306FEA43436FEAB2
:1027500053439BB21380FB6CDB78012B40F0A280CB
:10276000FB6C00229A61FB6C1B7B002B00F09380BA
:10277000B7F8523003F04003002B46D0FB6C5B7877
:10278000002B26D17B681B687B627B681B68B3F8D3
:1027900050309BB21A467B6A13447B62FB6C1B78F9
:1027A000DA007B6A134403F202433B623B6A1B88F4
:1027B0009BB223F4F8439AB23B6A1A803B6A1B88A7
:1027C0009BB26FEA43436FEA53439AB23B6A1A8063
:1027D00061E0FB6C5B78012B5DD17B681B68FB6261
:1027E0007B681B68B3F850309BB21A46FB6A1344EF
:1027F000FB62FB6C1B78DA00FB6A134403F20243B2
:10280000BB62BB6A00221A8045E07B681B68FB63E1
:10281000FB6C5B78002B26D17B681B687B637B6835
:102820001B68B3F850309BB21A467B6B13447B6332
:10283000FB6C1B78DA007B6B134403F206433B63AB
:102840003B6B1B889BB223F4F8439AB23B6B1A8014
:102850003B6B1B889BB26FEA43436FEA53439AB2C8
:102860003B6B1A8017E0FB6C5B78012B13D17B6804
:102870001B68B3F850309BB21A46FB6B1344FB63E2
:10288000FB6C1B78DA00FB6B134403F20643BB635B
:10289000BB6B00221A80FB6C1B781946786806F027
:1028A00058FC51E0B7F8523003F48073002B44D148
:1028B0007B681B68B3F850309BB21A46FB6C1B78E0
:1028C000DB0013447A681268134403F202431B8846
:1028D000C3F30903A7F84030FB6C9A69B7F840309E
:1028E0009A4207D9FB6C9A69B7F84030D21AFB6C50
:1028F0009A6102E0FB6C00229A61FB6C9B69002BE1
:1029000006D1FB6C1B781946786806F022FC1BE0A8
:10291000FB6C5A69B7F840301A44FB6C5A61FB6C87
:10292000DA69B7F840301A44FB6CDA617B681B68DF
:10293000F96C184603F07DF806E0B7F852301A46F5
:10294000F96C786800F017F97B681B68B3F84430BD
:102950009BB21BB2002BFFF64DAC00231846583734
:10296000BD4680BD80B588B000AFF860B960134641
:10297000FB80FB8803F48043002B7CD0FB681B6842
:10298000B3F850309BB21A46BB681B78DB00134487
:10299000FA681268134403F202431B88C3F3090365
:1029A0007B83BB689A697B8B9A4206D3BB689A6922
:1029B0007B8BD21ABB689A6102E0BB6800229A61E5
:1029C000BB689B69002B23D1FB681B681A46BB6858
:1029D0001B789B0013441B889BB223F4804323F095
:1029E00070033B833B8B83F400533B83FB681B6882
:1029F0001A46BB681B789B001A443B8B43F07F430D
:102A000043F47F0343F4004343F080039BB21380FD
:102A1000FB8803F04003002B1FD0FB681B681A469D
:102A2000BB681B789B0013441B889BB223F4E043D4
:102A300023F07003FB82FB681B681A46BB681B7897
:102A40009B001A44FB8A43F07F4343F47F0343F423
:102A5000004343F0C0039BB213807B8B002B00F03C
:102A60008580FB681868BB685969BB681A897B8BCD
:102A700004F0B2FC7AE0FB681B68B3F850309BB2FC
:102A80001A46BB681B78DB001344FA6812681344CB
:102A900003F206431B88C3F309037B83BB689A696F
:102AA0007B8B9A4206D3BB689A697B8BD21ABB6830
:102AB0009A6102E0BB6800229A61BB689B69002BA7
:102AC00023D1FB681B681A46BB681B789B00134424
:102AD0001B889BB223F4804323F07003FB83FB8BA2
:102AE00083F40053FB83FB681B681A46BB681B78A2
:102AF0009B001A44FB8B43F07F4343F47F0343F472
:102B0000004343F080039BB21380FB8803F0400333
:102B1000002B1FD1FB681B681A46BB681B789B0003
:102B200013441B889BB223F4E04323F07003BB8360
:102B3000FB681B681A46BB681B789B001A44BB8B5A
:102B400043F07F4343F47F0343F4004343F0C00367
:102B50009BB213807B8B002B08D0FB681868BB6886
:102B60005969BB685A897B8B04F036FC7B8B18460D
:102B70002037BD4680BD80B5A2B000AFF860B96017
:102B80001346FB80FB8803F04003002B00F0C58157
:102B9000FB681B68B3F850309BB21A46BB681B78C1
:102BA000DB001344FA681268134403F202431B88E3
:102BB000C3F30903A7F84E30BB689A69B7F84E30E3
:102BC0009A4207D9BB689A69B7F84E30D21ABB68E7
:102BD0009A6102E0BB6800229A61BB689B69002B86
:102BE00040F0B980BB685B78002B26D1FB681B687E
:102BF000BB62FB681B68B3F850309BB21A46BB6AD5
:102C00001344BB62BB681B78DA00BB6A134403F24F
:102C100002437B627B6A1B889BB223F4F8439AB21F
:102C20007B6A1A807B6A1B889BB26FEA43436FEA18
:102C300053439AB27B6A1A801AE0BB685B78012B17
:102C400016D1FB681B683B63FB681B68B3F8503008
:102C50009BB21A463B6B13443B63BB681B78DA009C
:102C60003B6B134403F20243FB62FB6A00221A80AF
:102C7000FB681B683B62BB685B78002B26D1FB6856
:102C80001B68BB61FB681B68B3F850309BB21A46E7
:102C9000BB691344BB61BB681B78DA00BB69134492
:102CA00003F206437B617B691B889BB223F4F843E4
:102CB0009AB27B691A807B691B889BB26FEA434397
:102CC0006FEA53439AB27B691A8017E0BB685B785E
:102CD000012B13D1FB681B68B3F850309BB21A4626
:102CE0003B6A13443B62BB681B78DA003B6A1344BF
:102CF00003F20643FB61FB6900221A80BB681B7864
:102D00001946F86806F025FAFB8803F48043002B87
:102D100000F0D282FB681B681A46BB681B789B00D8
:102D200013441B889BB223F4E04323F070037B829F
:102D3000FB681B681A46BB681B789B001A447B8A99
:102D400043F07F4343F47F0343F4404343F0800365
:102D50009BB21380B0E2FB8803F48043002B21D0A8
:102D6000FB681B681A46BB681B789B0013441B88D2
:102D70009BB223F4E04323F07003A7F84430FB68D0
:102D80001B681A46BB681B789B001A44B7F844308E
:102D900043F07F4343F47F0343F4404343F0800315
:102DA0009BB21380BB6893F82430012B40F08482DF
:102DB000BB685A69B7F84E301A44BB685A61BB68A1
:102DC000DA69B7F84E301A44BB68DA61BB681A6A30
:102DD000BB681B699A4209D3BB681B693B65BB682A
:102DE0001A6A3B6DD21ABB681A6215E0BB681B6A8F
:102DF000002B07D1B7F84E303B65BB68002283F843
:102E0000242009E0BB68002283F82420BB681B6AE9
:102E10003B65BB6800221A62BB685B78002B55D10A
:102E2000FB681B68BB63FB681B68B3F850309BB240
:102E30001A46BB6B1344BB63BB681B78DA00BB6BE1
:102E4000134403F202437B633B6D3E2B16D93B6D6B
:102E50005B09BB643B6D03F01F03002B02D1BB6C0D
:102E6000013BBB64BB6C9BB29B029BB26FEA4343CA
:102E70006FEA53439AB27B6B1A8043E03B6D002BA1
:102E800012D17B6B1B889BB223F4F8439AB27B6B05
:102E90001A807B6B1B889BB26FEA43436FEA5343F4
:102EA0009AB27B6B1A802DE03B6D5B08BB643B6D77
:102EB00003F00103002B02D0BB6C0133BB64BB6C7D
:102EC0009BB29B029AB27B6B1A801BE0BB685B785B
:102ED000012B17D1FB681B683B64FB681B68B3F8C8
:102EE00050309BB21A463B6C13443B64BB681B7862
:102EF000DA003B6C134403F20243FB633B6D9AB26E
:102F0000FB6B1A80FB681868BB685969BB681A8933
:102F10003B6D9BB204F01EFACEE1FB681B68B3F870
:102F200050309BB21A46BB681B78DB001344FA682A
:102F30001268134403F206431B88C3F30903A7F87E
:102F40004E30BB689A69B7F84E309A4207D3BB68D7
:102F50009A69B7F84E30D21ABB689A6102E0BB6832
:102F600000229A61BB689B69002B40F0C480BB685B
:102F70005B78002B26D1FB681B68BB66FB681B686F
:102F8000B3F850309BB21A46BB6E1344BB66BB68A5
:102F90001B78DA00BB6E134403F202437B667B6E40
:102FA0001B889BB223F4F8439AB27B6E1A807B6E27
:102FB0001B889BB26FEA43436FEA53439AB27B6E1E
:102FC0001A801AE0BB685B78012B16D1FB681B687E
:102FD0003B67FB681B68B3F850309BB21A463B6FE7
:102FE00013443B67BB681B78DA003B6F134403F262
:102FF0000243FB66FB6E00221A80FB681B68FB67BE
:10300000BB685B78002B2FD1FB681B68C7F8843046
:10301000FB681B68B3F850309BB21A46D7F884306F
:103020001344C7F88430BB681B78DA00D7F88430C3
:10303000134403F20643C7F88030D7F880301B886A
:103040009BB223F4F8439AB2D7F880301A80D7F8AD
:1030500080301B889BB26FEA43436FEA53439AB2B6
:10306000D7F880301A8017E0BB685B78012B13D14A
:10307000FB681B68B3F850309BB21A46FB6F1344D1
:10308000FB67BB681B78DA00FB6F134403F206434F
:10309000BB67BB6F00221A80BB681B781946F868B3
:1030A00006F057F8FB8803F48043002B40F00481BE
:1030B000FB681B681A46BB681B789B0013441B887F
:1030C0009BB223F4E04323F07003A7F84630FB687B
:1030D0001B681A46BB681B789B001A44B7F8463039
:1030E00043F07F4343F47F0343F4404343F08003C2
:1030F0009BB21380E0E0FB8803F48043002B21D1D6
:10310000FB681B681A46BB681B789B0013441B882E
:103110009BB223F4E04323F07003A7F84C30FB6824
:103120001B681A46BB681B789B001A44B7F84C30E2
:1031300043F07F4343F47F0343F4404343F0800371
:103140009BB21380BB6893F82430012B40F0B4800D
:10315000BB685A69B7F84E301A44BB685A61BB68FD
:10316000DA69B7F84E301A44BB68DA61BB681A6A8C
:10317000BB681B699A4209D3BB681B693B65BB6886
:103180001A6A3B6DD21ABB681A6215E0BB681B6AEB
:10319000002B07D1B7F84E303B65BB68002283F89F
:1031A000242009E0BB681B6A3B65BB6800221A62E9
:1031B000BB68002283F82420FB681B683B66BB6861
:1031C0005B78002B55D1FB681B68BB65FB681B68EF
:1031D000B3F850309BB21A46BB6D1344BB65BB6855
:1031E0001B78DA00BB6D134403F206437B653B6D2D
:1031F0003E2B16D93B6D5B097B673B6D03F01F03CC
:10320000002B02D17B6F013B7B677B6F9BB29B02E4
:103210009BB26FEA43436FEA53439AB27B6D1A80C5
:1032200040E03B6D002B12D17B6D1B889BB223F4D9
:10323000F8439AB27B6D1A807B6D1B889BB26FEA54
:1032400043436FEA53439AB27B6D1A802AE03B6D89
:103250005B087B673B6D03F00103002B02D07B6FA3
:1032600001337B677B6F9BB29B029AB27B6D1A80A6
:1032700018E0BB685B78012B14D1FB681B68B3F8BE
:1032800050309BB21A463B6E13443B66BB681B78BA
:10329000DA003B6E134403F20643FB653B6D9AB2C2
:1032A000FB6D1A80FB681868BB685969BB685A894E
:1032B0003B6D9BB204F04EF8FB681B681A46BB6876
:1032C0001B789B0013441B889BB223F4E04323F03C
:1032D00040033B823B8A83F010033B823B8A83F0AE
:1032E00020033B82FB681B681A46BB681B789B0067
:1032F0001A443B8A43F07F4343F47F0343F4004383
:1033000043F080039BB21380002318468837BD46E4
:1033100080BD80B487B000AFF8607B600B467B81D6
:1033200013463B817B8903F080039BB2002B0CD0BA
:103330007B8903F007035A1C13469B001344DB00F0
:10334000FA68134404337B610AE07A8913469B00D0
:103350001344DB0003F5B473FA68134404337B6150
:103360003B89002B07D17B6900221A737B689AB2D4
:103370007B69DA800BE07B6901221A737B689AB261
:103380007B691A817B681B0C9AB27B695A81002386
:1033900018461C37BD465DF8047B704780B485B085
:1033A00000AF78607B681B68FB607B680122C3F814
:1033B000F0227B68002283F8E422FB68B3F85430E3
:1033C0009BB243F001039AB2FB68A3F85420FB6858
:1033D000B3F854309BB243F002039AB2FB68A3F8EF
:1033E0005420002318461437BD465DF8047B70470F
:1033F00080B400AF054B1B68044A43F4807313602C
:1034000000BFBD465DF8047B704700BF0070004000
:1034100080B400AF094B1B6823F00703074A43F051
:1034200003031360064B1B69054A43F00403136151
:1034300030BF00BFBD465DF8047B704700700040A0
:1034400000ED00E080B400AF044B1B6803F4C063E0
:103450001846BD465DF8047B704700BF0070004011
:1034600080B485B000AF78607B68B3F5007F30D161
:10347000234B1B6803F4C063B3F5007F38D0204BA7
:103480001B6823F4C0631E4A43F4007313601D4B92
:103490001B68322202FB03F31B4AA2FB03239B0C93
:1034A0000133FB6002E0FB68013BFB60144B5B698E
:1034B00003F48063B3F5806F02D1FB68002BF2D177
:1034C0000F4B5B6903F48063B3F5806F10D1032366
:1034D0000FE00B4B1B6803F4C063B3F5806F07D09C
:1034E000074B1B6823F4C063054A43F480631360F1
:1034F000002318461437BD465DF8047B704700BFB3
:10350000007000400000002083DE1B4380B400AF49
:10351000054B5B68044A43F48063536000BFBD46BB
:103520005DF8047B704700BF0070004080B588B034
:1035300000AF78607B68002B02D1012300F002BC51
:10354000964B9B6803F00C03BB61944BDB6803F064
:1035500003037B617B681B6803F01003002B00F002
:10356000E480BB69002B07D0BB690C2B40F08B803B
:103570007B69012B40F08780884B1B6803F00203B6
:10358000002B05D07B689B69002B01D10123D9E377
:103590007B681A6A814B1B6803F00803002B04D078
:1035A0007E4B1B6803F0F00305E07C4BD3F89430AE
:1035B0001B0903F0F003934223D27B681B6A184671
:1035C00000F054FD0346002B01D00123BAE3734BF6
:1035D0001B68724A43F008031360704B1B6823F0AA
:1035E000F0027B681B6A6D4913430B606B4B5B6891
:1035F00023F47F427B68DB691B02684913434B60FD
:1036000025E0664B1B68654A43F008031360634B73
:103610001B6823F0F0027B681B6A604913430B6050
:103620005E4B5B6823F47F427B68DB691B025B496E
:1036300013434B60BB69002B09D17B681B6A18469A
:1036400000F014FD0346002B01D001237AE300F0C3
:1036500081FC0246514B9B681B0903F00F03504944
:10366000CB5C03F01F0322FA03F34E4A13604E4B68
:103670001B681846FDF702FE0346FB73FB7B002B1D
:1036800052D0FB7B5EE37B689B69002B32D0434BBF
:103690001B68424A43F001031360FDF73FFE3861A7
:1036A00008E0FDF73BFE02463B69D31A022B01D925
:1036B000032347E3394B1B6803F00203002BF0D0D0
:1036C000364B1B68354A43F008031360334B1B68C5
:1036D00023F0F0027B681B6A304913430B602F4BC9
:1036E0005B6823F47F427B68DB691B022B49134331
:1036F0004B601AE0294B1B68284A23F00103136032
:10370000FDF70CFE386108E0FDF708FE02463B6954
:10371000D31A022B01D9032314E3204B1B6803F0B7
:103720000203002BF0D100E000BF7B681B6803F0B0
:103730000103002B73D0BB69082B05D0BB690C2B90
:103740000ED17B69032B0BD1144B1B6803F40033A0
:10375000002B63D07B685B68002B5FD10123F1E213
:103760007B685B68B3F5803F06D10C4B1B680B4A46
:1037700043F48033136025E07B685B68B3F5A02FCA
:1037800014D1064B1B68054A43F480231360034B96
:103790001B68024A43F48033136013E000100240B8
:1037A000A0C201080000002004000020A04B1B68FC
:1037B0009F4A23F4803313609D4B1B689C4A23F47B
:1037C000802313607B685B68002B13D0FDF7A6FD98
:1037D000386108E0FDF7A2FD02463B69D31A642B6D
:1037E00001D90323AEE2924B1B6803F40033002B94
:1037F000F0D014E0FDF792FD386108E0FDF78EFD92
:1038000002463B69D31A642B01D903239AE2884B01
:103810001B6803F40033002BF0D100E000BF7B688D
:103820001B6803F00203002B60D0BB69042B05D09A
:10383000BB690C2B19D17B69022B16D17C4B1B6801
:1038400003F48063002B05D07B68DB68002B01D17B
:10385000012377E2764B5B6823F0F8527B681B69A3
:103860001B06734913434B6040E07B68DB68002B09
:1038700023D06F4B1B686E4A43F480731360FDF7CF
:103880004DFD386108E0FDF749FD02463B69D31A5A
:10389000022B01D9032355E2654B1B6803F48063B7
:1038A000002BF0D0624B5B6823F0F8527B681B69F9
:1038B0001B065F4913434B6018E05D4B1B685C4A75
:1038C00023F480731360FDF729FD386108E0FDF7EC
:1038D00025FD02463B69D31A022B01D9032331E2AD
:1038E000534B1B6803F48063002BF0D17B681B688B
:1038F00003F00803002B3CD07B685B69002B1CD0D5
:103900004B4BD3F894304A4A43F00103C2F8943049
:10391000FDF704FD386108E0FDF700FD02463B6954
:10392000D31A022B01D903230CE2414BD3F8943074
:1039300003F00203002BEFD01BE03D4BD3F8943093
:103940003B4A23F00103C2F89430FDF7E7FC3861ED
:1039500008E0FDF7E3FC02463B69D31A022B01D9CC
:103960000323EFE1324BD3F8943003F00203002B32
:10397000EFD17B681B6803F00403002B00F0A680E6
:103980000023FB772A4B9B6D03F08053002B0DD156
:10399000274B9B6D264A43F080539365244B9B6DC8
:1039A00003F08053BB60BB680123FB77214B1B688E
:1039B00003F48073002B18D11E4B1B681D4A43F47F
:1039C00080731360FDF7AAFC386108E0FDF7A6FCE0
:1039D00002463B69D31A022B01D90323B2E1154BEE
:1039E0001B6803F48073002BF0D07B689B68012B6D
:1039F00008D10F4BD3F890300D4A43F00103C2F8C1
:103A0000903029E07B689B68052B15D1084BD3F8D3
:103A10009030074A43F00403C2F89030044BD3F8C7
:103A20009030034A43F00103C2F8903014E000BF25
:103A300000100240007000409A4BD3F89030994A31
:103A400023F00103C2F89030964BD3F89030954A9A
:103A500023F00403C2F890307B689B68002B16D0DB
:103A6000FDF75CFC38610AE0FDF758FC02463B6953
:103A7000D31A41F28832934201D9032362E1894B80
:103A8000D3F8903003F00203002BEDD015E0FDF7E2
:103A900045FC38610AE0FDF741FC02463B69D31A58
:103AA00041F28832934201D903234BE17D4BD3F895
:103AB000903003F00203002BEDD1FB7F012B05D1E9
:103AC000784B9B6D774A23F0805393657B681B6826
:103AD00003F02003002B3CD07B685B6A002B1CD0DA
:103AE000704BD3F898306F4A43F00103C2F8983016
:103AF000FDF714FC386108E0FDF710FC02463B6955
:103B0000D31A022B01D903231CE1664BD3F898305A
:103B100003F00203002BEFD01BE0624BD3F8983088
:103B2000604A23F00103C2F89830FDF7F7FB3861D3
:103B300008E0FDF7F3FB02463B69D31A022B01D9DB
:103B40000323FFE0574BD3F8983003F00203002B18
:103B5000EFD17B689B6A002B00F0F3807B689B6A47
:103B6000022B40F0C9804F4BDB687B617B6903F01F
:103B700003027B68DB6A9A422CD17B6903F07002F6
:103B80007B681B6B013B1B019A4223D17B6903F4C9
:103B9000FE427B685B6B1B029A421BD17B6903F080
:103BA00078427B689B6BDB069A4213D17B6903F4F6
:103BB000C0027B68DB6B5B08013B5B059A4209D165
:103BC0007B6903F0C0627B681B6C5B08013B5B0692
:103BD0009A426BD0BB690C2B62D0324B1B6803F04E
:103BE0008063002B01D00123ACE02E4B1B682D4AD3
:103BF00023F080731360FDF791FB386108E0FDF757
:103C00008DFB02463B69D31A022B01D9032399E0AD
:103C1000244B1B6803F00073002BF0D1214BDA68B2
:103C2000214B13407A68D16A7A68126B013A12010B
:103C300011437A68526B120211437A68D26B5208B0
:103C4000013A520511437A68126C5208013A520641
:103C500011437A68926BD2060A4312491343CB6030
:103C6000104B1B680F4A43F0807313600D4BDB68E9
:103C70000C4A43F08073D360FDF750FB386108E0D5
:103C8000FDF74CFB02463B69D31A022B01D90323F3
:103C900058E0044B1B6803F00073002BF0D050E099
:103CA00001234FE0001002408C809D01274B1B68D0
:103CB00003F00073002B44D1244B1B68234A43F0CC
:103CC00080731360214BDB68204A43F08073D3601C
:103CD000FDF724FB386108E0FDF720FB02463B6955
:103CE000D31A022B01D903232CE0184B1B6803F0D5
:103CF0000073002BF0D024E0BB690C2B1FD0134BBA
:103D00001B68124A23F080731360FDF707FB3861CC
:103D100008E0FDF703FB02463B69D31A022B01D9E9
:103D200003230FE0094B1B6803F00073002BF0D155
:103D3000064BDA680549064B1340CB6001E00123CE
:103D400000E0002318462037BD4680BD0010024029
:103D5000FCFFEEFE80B584B000AF786039607B6810
:103D6000002B01D10123E7E0754B1B6803F007032B
:103D70003A689A4210D9724B1B6823F007027049C7
:103D80003B6813430B606E4B1B6803F007033A68F4
:103D90009A4201D00123CFE07B681B6803F0020345
:103DA000002B10D07B689A68664B9B6803F0F00389
:103DB0009A4208D9634B9B6823F0F0027B689B68AA
:103DC000604913438B607B681B6803F00103002B81
:103DD0004CD07B685B68032B07D15A4B1B6803F000
:103DE0000073002B21D10123A6E07B685B68022BC6
:103DF00007D1544B1B6803F40033002B15D101236A
:103E00009AE07B685B68002B07D14E4B1B6803F080
:103E10000203002B09D101238EE04A4B1B6803F4F7
:103E20008063002B01D1012386E0464B9B6823F081
:103E300003027B685B68434913438B60FDF76EFAAE
:103E4000F8600AE0FDF76AFA0246FB68D31A41F20D
:103E50008832934201D903236EE03A4B9B6803F00A
:103E60000C027B685B689B009A42EBD17B681B6805
:103E700003F00203002B10D07B689A68314B9B68DB
:103E800003F0F0039A4208D22E4B9B6823F0F00215
:103E90007B689B682B4913438B60294B1B6803F09D
:103EA00007033A689A4210D2254B1B6823F0070299
:103EB00023493B6813430B60214B1B6803F0070346
:103EC0003A689A4201D0012336E07B681B6803F010
:103ED0000403002B08D01B4B9B6823F4E0627B6833
:103EE000DB68184913438B607B681B6803F0080389
:103EF000002B09D0134B9B6823F460527B681B692D
:103F0000DB00104913438B6000F024F802460D4B90
:103F10009B681B0903F00F030B49CB5C03F01F03E5
:103F200022FA03F3094A1360094B1B681846FDF790
:103F3000A5F90346FB72FB7A18461037BD4680BDD3
:103F40000020024000100240A0C201080000002032
:103F50000400002080B489B000AF0023FB6100237F
:103F6000BB613E4B9B6803F00C033B613B4BDB6842
:103F700003F00303FB603B69002B05D03B690C2B6E
:103F800021D1FB68012B1ED1344B1B6803F00803C1
:103F9000002B07D1314BD3F894301B0A03F00F03E9
:103FA000FB6105E02D4B1B681B0903F00F03FB6150
:103FB0002B4AFB6952F82330FB613B69002B0DD182
:103FC000FB69BB610AE03B69042B02D1254BBB6155
:103FD00004E03B69082B01D1234BBB613B690C2BEF
:103FE00034D11E4BDB6803F00303BB60BB68022BBC
:103FF00003D0BB68032B03D005E01A4B7B6105E0BF
:10400000194B7B6102E0FB697B6100BF134BDB68EE
:104010001B0903F0070301337B60104BDB681B0AAD
:1040200003F07F037A6903FB02F27B68B2FBF3F3D0
:104030007B610A4BDB685B0E03F0030301335B001B
:104040003B607A693B68B2FBF3F3BB61BB6918461E
:104050002437BD465DF8047B704700BF0010024066
:10406000B0C201080024F40000127A0080B586B0C6
:1040700000AF786000233B612A4B9B6D03F08053B7
:10408000002B03D0FFF7DEF9786114E0254B9B6D20
:10409000244A43F080539365224B9B6D03F0805379
:1040A000FB60FB68FFF7CEF978611E4B9B6D1D4AE4
:1040B00023F0805393657B69B3F5007F0BD17B6858
:1040C000802B19D97B68A02B02D902233B6113E016
:1040D00001233B6110E07B68802B02D903233B6105
:1040E0000AE07B68802B02D102233B6104E07B68FD
:1040F000702B01D101233B610B4B1B6823F007029E
:1041000009493B6913430B60074B1B6803F0070326
:104110003A699A4201D0012300E00023184618377B
:10412000BD4680BD001002400020024080B586B030
:1041300000AF78600023FB740023BB747B681B68AE
:1041400003F40063002B31D07B68DB6BB3F5400FC9
:104150001AD0B3F5400F14D8002B09D0B3F5000FD7
:104160000FD15D4BDB685C4A43F48033D3600CE0D5
:104170007B6804330021184600F0DEF90346FB7427
:1041800003E00123FB7400E000BFFB7C002B0BD19C
:10419000514BD3F8883023F440027B68DB6B4E49E7
:1041A0001343C1F8883001E0FB7CBB747B681B685B
:1041B00003F40033002B00F09E8000237B74464BF9
:1041C0009B6D03F08053002B01D1012300E00023FD
:1041D000002B0DD0404B9B6D3F4A43F080539365BD
:1041E0003D4B9B6D03F08053BB60BB6801237B7428
:1041F0003A4B1B68394A43F480731360FDF78EF81D
:10420000F86009E0FDF78AF80246FB68D31A022B32
:1042100002D90323FB7405E0304B1B6803F4807361
:10422000002BEFD0FB7C002B5AD12B4BD3F89030D6
:1042300003F440737B617B69002B1ED07B681B6D90
:104240007A699A4219D0244BD3F8903023F4407302
:104250007B61214BD3F890301F4A43F48033C2F87E
:1042600090301D4BD3F890301B4A23F48033C2F8B2
:104270009030194A7B69C2F890307B6903F00103E2
:10428000002B16D0FDF74AF8F8600BE0FDF746F872
:104290000246FB68D31A41F28832934202D90323C3
:1042A000FB7406E00C4BD3F8903003F00203002BB4
:1042B000ECD0FB7C002B0BD1074BD3F8903023F4D0
:1042C00040727B681B6D04491343C1F8903009E0CC
:1042D000FB7CBB7406E000BF001002400070004091
:1042E000FB7CBB747B7C012B05D18A4B9B6D894A7F
:1042F00023F0805393657B681B6803F00103002B58
:104300000AD0844BD3F8883023F003027B681B6A01
:1043100080491343C1F888307B681B6803F00203AF
:10432000002B0AD07B4BD3F8883023F00C027B683B
:104330005B6A78491343C1F888307B681B6803F0D7
:104340002003002B0AD0734BD3F8883023F440624B
:104350007B689B6A6F491343C1F888307B681B6890
:1043600003F40073002B0AD06A4BD3F8883023F48F
:1043700040227B685B6B67491343C1F888307B68D8
:104380001B6803F48063002B0AD0624BD3F888309B
:1043900023F440127B689B6B5E491343C1F888305D
:1043A0007B681B6803F04003002B0AD0594BD3F8FD
:1043B000883023F440527B68DB6A56491343C1F8C6
:1043C00088307B681B6803F48073002B0AD0514B44
:1043D000D3F8883023F440327B681B6B4D4913437C
:1043E000C1F888307B681B6803F40053002B28D089
:1043F000484BD3F8883023F040627B681B6C4549FA
:104400001343C1F888307B681B6CB3F1006F06D191
:10441000404BDB683F4A43F48013D36011E07B6874
:104420001B6CB3F1806F0CD17B68043301211846FB
:1044300000F082F80346FB74FB7C002B01D0FB7C70
:10444000BB747B681B6803F48023002B28D0314B9E
:10445000D3F8883023F040627B685B6C2D491343AE
:10446000C1F888307B685B6CB3F1006F06D1294BD3
:10447000DB68284A43F48013D36011E07B685B6CEF
:10448000B3F1806F0CD17B6804330121184600F032
:1044900053F80346FB74FB7C002B01D0FB7CBB7400
:1044A0007B681B6803F48043002B1CD0194BD3F8A6
:1044B000883023F040527B689B6C16491343C1F847
:1044C00088307B689B6CB3F1805F0CD17B680433D0
:1044D0000221184600F030F80346FB74FB7C002BE9
:1044E00001D0FB7CBB747B681B6803F40043002B8A
:1044F0000AD0084BD3F8883023F080427B68DB6C0D
:1045000004491343C1F88830BB7C18461837BD46B0
:1045100080BD00BF0010024080B400AF054B1B6897
:10452000044A43F00403136000BFBD465DF8047BFA
:10453000704700BF0010024080B584B000AF7860C3
:1045400039600023FB73744BDB6803F00303002B1B
:1045500018D0714BDB6803F003027B681B689A423A
:104560000DD17B681B68002B09D06B4BDB681B09E6
:1045700003F007035A1C7B685B689A4247D001230B
:10458000FB7344E07B681B68032B18D0032B25D8F2
:10459000012B02D0022B09D020E05F4B1B6803F0F7
:1045A0000203002B1DD10123FB731AE05A4B1B6839
:1045B00003F48063002B16D10123FB7313E0564BE9
:1045C0001B6803F40033002B0FD1534B1B6803F41B
:1045D0008023002B09D10123FB7306E00123FB7329
:1045E00004E000BF02E000BF00E000BFFB7B002B47
:1045F0000DD1494BDB6823F073027B6819687B6837
:104600005B68013B1B010B4343491343CB60FB7BBE
:10461000002B7CD1404B1B683F4A23F08063136022
:10462000FCF77CFEB86009E0FCF778FE0246BB6848
:10463000D31A022B02D90323FB7305E0364B1B6808
:1046400003F00063002BEFD1FB7B002B5FD13B68B5
:10465000002B10D1304B1B6923F0784323F4FE4329
:104660007A68926811027A68D268D2060A432A49A7
:1046700013430B6127E03B68012B12D1264B1B69CA
:1046800023F4C00323F4FE437A68926811027A6827
:1046900012695208013A52050A431F4913430B613C
:1046A00011E01D4B1B6923F0C06323F4FE437A68BD
:1046B000926811027A6852695208013A52060A4316
:1046C000154913430B61144B1B68134A43F0806375
:1046D0001360FCF723FEB86009E0FCF71FFE0246FA
:1046E000BB68D31A022B02D90323FB7305E00A4BE4
:1046F0001B6803F00063002BEFD0FB7B002B06D17F
:10470000054B1A697B689B69034913430B61FB7B6B
:1047100018461037BD4680BD0010024080B584B0F9
:1047200000AF78607B68002B01D1012349E07B68F2
:104730005B79DBB2002B05D17B6800221A717868A7
:10474000FCF7D4FB7B6802225A717B681B681A68ED
:104750007B681B6842F004021A607B681B685B6818
:1047600003F04003402B04D17B6804225A710123DB
:1047700027E0FCF7D3FDF86015E0FCF7CFFD02461B
:10478000FB68D31A022B0ED97B681B685B6803F0A9
:104790000403042B07D17B6804225A717B68022230
:1047A0009A6001230DE07B681B685B6803F00403DB
:1047B000042BE2D07B6801225A717B6800229A6048
:1047C000002318461037BD4680BD80B584B000AFC9
:1047D00078600123FB737B68002B6CD07B6893F8B7
:1047E0002130DBB2002B06D17B68002283F8202029
:1047F0007868FCF7AFFB7B68022283F821207B6896
:104800001B68CA225A627B681B6853225A62786806
:1048100000F0A0F90346FB73FB7B002B4BD17B68B8
:104820001B689B687A68126823F4E00323F0400356
:1048300093607B681B6899687B685A687B681B6912
:104840001A437B689B691A437B681B680A439A601A
:104850007B681B687A68D2681A617B681B68196973
:104860007B689B681A047B681B680A431A61786836
:1048700000F0A4F90346FB73FB7B002B1BD17B6884
:104880001B68DA6C7B681B6822F00302DA647B68C1
:104890001B68D96C7B68DA697B685B691A437B6843
:1048A0001B680A43DA647B681B68FF225A627B68D4
:1048B000012283F82120FB7B18461037BD4680BDBE
:1048C00090B587B000AFF860B9607A60FB6893F884
:1048D0002030012B01D102238BE0FB68012283F8F9
:1048E0002020FB68022283F82120FB681B68CA2273
:1048F0005A62FB681B6853225A62F86800F02AF972
:104900000346FB74FB7C002B63D17B68002B26D114
:10491000FB681B689B6803F04003002B02D1BB6857
:104920000022DA70BB681B78184600F085F9034650
:104930001C04BB685B78184600F07EF903461B0236
:104940001C43BB689B78184600F076F9034644EA9E
:104950000302BB68DB789B0513437B6118E0FB68AF
:104960001B689B6803F04003002B02D1BB68002248
:10497000DA70BB681B781A04BB685B781B021343B0
:10498000BA6892781A43BB68DB789B0513437B6156
:10499000FB681A687B6903F07F3323F0FE431360E2
:1049A000FB681B689A68FB681B6822F480229A6087
:1049B000FB681B689968BB68DA68BB681B691A43A7
:1049C000FB681B680A439A60F86800F0F7F8034632
:1049D000FB74FB681B68FF225A62FB7C002B03D12F
:1049E000FB68012283F82120FB68002283F8202045
:1049F000FB7C18461C37BD4690BD90B587B000AF14
:104A0000F860B9607A60FB6893F82030012B01D11F
:104A1000022375E0FB68012283F82020FB68022254
:104A200083F821207B68002B0ED1BB685B7803F0F4
:104A30001003002B08D0BB685B7823F01003DBB2B7
:104A40000A33DAB2BB685A707B68002B1CD1BB6892
:104A5000DB78184600F0F0F803461C04BB685B786E
:104A6000184600F0E9F803461B021C43BB689B781C
:104A7000184600F0E1F8034644EA0302BB681B78DD
:104A80005B0313437B610EE0BB68DB781A04BB68F1
:104A90005B781B021343BA6892781A43BB681B7891
:104AA0005B0313437B61FB681B68CA225A62FB6885
:104AB0001B6853225A62F86800F04CF80346FB74F6
:104AC000FB7C002B0CD1FB681A687B6923F07F43C9
:104AD00023F0C0035360F86800F070F80346FB74DD
:104AE000FB681B68FF225A62FB7C002B03D1FB682A
:104AF000012283F82120FB68002283F82020FB7C20
:104B000018461C37BD4690BD80B584B000AF7860B4
:104B10007B681B68DA687B681B6822F0A002DA6099
:104B2000FCF7FCFBF86009E0FCF7F8FB0246FB68C9
:104B3000D31AB3F57A7F01D9032307E07B681B689A
:104B4000DB6803F02003002BEED00023184610375B
:104B5000BD4680BD80B584B000AF78600023FB7394
:104B60007B681B68DB6803F04003002B20D17B6867
:104B70001B684FF0FF32DA60FCF7D0FBB8600DE045
:104B8000FCF7CCFB0246BB68D31AB3F57A7F05D994
:104B90000323FB737B68032283F821207B681B6857
:104BA000DB6803F04003002B02D1FB7B032BE7D132
:104BB000FB7B18461037BD4680BD000080B584B031
:104BC00000AF78600023FB731A4BDB68194A23F0AF
:104BD0008003D360174B9B6803F02003002B0CD19C
:104BE0007868FFF791FF0346002B1ED07B680322F5
:104BF00083F821200323FB7317E00E4B9B680D4ABB
:104C000023F0200393607868FFF77EFF0346002BB4
:104C100005D07B68032283F821200323FB73054B17
:104C20009B68044A43F020039360FB7B18461037CF
:104C3000BD4680BD0028004080B485B000AF03466B
:104C4000FB710023FB60FB79FB7205E0FB6801331D
:104C5000FB60FB7A0A3BFB72FB7A092BF6D8FB68F8
:104C6000DBB21B01DAB2FB7A1343DBB2184614370E
:104C7000BD465DF8047B704780B586B000AFF86034
:104C8000B9607A60FB6893F82030012B01D10223D0
:104C90007FE0FB68012283F82020FB68022283F872
:104CA0002120FB681B68CA225A62FB681B685322DA
:104CB0005A62FB681B689A68FB681B6822F4806272
:104CC0009A60FB681B68DB68DAB2FB681B6862F4F9
:104CD0009062DA60FB681B68DB6803F04003002B1E
:104CE00020D1FCF71BFB786115E0FCF717FB0246AF
:104CF0007B69D31AB3F57A7F0DD9FB681B68FF2255
:104D00005A62FB68032283F82120FB68002283F8A3
:104D1000202003233DE0FB681B68DB6803F00403ED
:104D2000002BE2D0FB681B68BA685A61FB681B68FD
:104D30009B6823F00701FB681B687A680A439A6046
:104D4000164B1B68154A43F480131360134B9B6882
:104D5000124A43F480139360FB681B689A68FB68EF
:104D60001B6842F480429A60FB681B689A68FB6883
:104D70001B6842F480629A60FB681B68FF225A62DB
:104D8000FB68012283F82120FB68002283F82020A1
:104D9000002318461837BD4680BD00BF00040140FF
:104DA00080B582B000AF78600F4B4FF480125A612B
:104DB0007B681B68DB6803F48063002B0BD07B6887
:104DC0001B68DB68DAB27B681B6862F49062DA60A9
:104DD000786800F00BF87B68012283F8212000BF7F
:104DE0000837BD4680BD00BF0004014080B483B0D9
:104DF00000AF786000BF0C37BD465DF8047B70479C
:104E000084B080B483B000AF786007F1140080E80C
:104E10000E00002318460C37BD465DF8047B04B035
:104E2000704780B485B000AF78607B680022A3F83B
:104E300044204BF68073FB60FB689AB27B68A3F852
:104E40004020002318461437BD465DF8047B7047A8
:104E500080B485B000AF78604BF68073FB607B68F0
:104E6000B3F840309AB2FB689BB2DB439BB213406D
:104E70009AB27B68A3F84020002318461437BD4639
:104E80005DF8047B704780B483B000AF78600B4658
:104E9000FB70002318460C37BD465DF8047B704755
:104EA00084B080B483B000AF786007F1140080E86C
:104EB0000E007B680122A3F840207B680022A3F843
:104EC00040207B680022A3F844207B680022A3F8DE
:104ED0005020002318460C37BD465DF8047B04B013
:104EE0007047000080B49DB000AF78603960002347
:104EF00087F86F307A683B681B789B0013441B88E7
:104F00009BB223F4EC4323F07003A7F86C303B68AA
:104F1000DB78032B1FD801A252F823F02D4F010894
:104F2000494F01085F4F01083B4F0108B7F86C304B
:104F300043F40073A7F86C3012E0B7F86C3043F418
:104F4000C063A7F86C300BE0B7F86C3043F48063B3
:104F5000A7F86C3004E0012387F86F3000E000BF51
:104F60007A683B681B789B001A44B7F86C3043F0B2
:104F70007F4343F47F0343F4004343F080039BB239
:104F800013807A683B681B789B0013441B889BB294
:104F90001BB223F4E04323F070031AB23B681B7882
:104FA0001BB213431BB2A7F866307A683B681B78C4
:104FB0009B001A44B7F8663043F07F4343F47F0305
:104FC00043F4004343F080039BB213803B681B7B98
:104FD000002B40F06E813B685B78002B00F08480F2
:104FE0007B68BB617B68B3F850309BB21A46BB69E3
:104FF0001344BB613B681B78DA00BB69134403F5BB
:1050000080637B613B68DB885B089BB25B009AB284
:105010007B691A807A683B681B789B0013441B8865
:105020007B827B8A03F04003002B1BD07A683B68AD
:105030001B789B0013441B889BB223F4E04323F0AE
:1050400070033B827A683B681B789B001A443B8A5A
:1050500043F07F4343F47F0343F4004343F0C00332
:105060009BB213803B68DB78012B20D07A683B68C9
:105070001B789B0013441B889BB223F4E04323F06E
:105080004003BB81BB8983F02003BB817A683B6806
:105090001B789B001A44BB8943F07F4343F47F0392
:1050A00043F4004343F080039BB21380CBE27A6861
:1050B0003B681B789B0013441B889BB223F4E0439E
:1050C00023F04003FB817A683B681B789B001A44FD
:1050D000FB8943F07F4343F47F0343F4004343F0F1
:1050E00080039BB21380AEE27B683B637B68B3F8BE
:1050F00050309BB21A463B6B13443B633B681B78B2
:10510000DA003B6B134403F20443FB623B68DB8829
:105110005B089BB25B009AB2FB6A1A807B68BB6239
:105120007B68B3F850309BB21A46BB6A1344BB622B
:105130003B681B78DA00BB6A134403F206437B62C8
:105140003B681B693E2B18D93B681B695B09BB6632
:105150003B681B6903F01F03002B02D1BB6E013BB0
:10516000BB66BB6E9BB29B029BB26FEA43436FEA86
:1051700053439AB27B6A1A8029E03B681B69002B73
:1051800012D17B6A1B889BB223F4F8439AB27B6AE4
:105190001A807B6A1B889BB26FEA43436FEA5343D2
:1051A0009AB27B6A1A8012E03B681B695B08BB6697
:1051B0003B681B6903F00103002B02D0BB6E013377
:1051C000BB66BB6E9BB29B029AB27B6A1A807A68FE
:1051D0003B681B789B0013441B887B847B8C03F407
:1051E0008043002B1BD07A683B681B789B001344DC
:1051F0001B889BB223F4E04323F070033B847A685E
:105200003B681B789B001A443B8C43F07F4343F47C
:105210007F0343F4404343F080039BB213803B6819
:105220001B78002B24D17A683B681B789B001344C1
:105230001B889BB223F4804323F07003BB83BB8B9A
:1052400083F48053BB83BB8B83F40053BB837A68A6
:105250003B681B789B001A44BB8B43F07F4343F4AD
:105260007F0343F4004343F080039BB21380EAE1E1
:105270007A683B681B789B0013441B889BB223F41D
:10528000804323F07003FB83FB8B83F40053FB8389
:105290007A683B681B789B001A44FB8B43F07F4382
:1052A00043F47F0343F4004343F080039BB2138035
:1052B000C9E13B68DB78022B1ED17A683B681B781A
:1052C0009B0013441B889BB223F4E04323F070033C
:1052D000A7F862307A683B681B789B001A44B7F8DD
:1052E000623043F07F4343F47F0343F4014343F0D0
:1052F00080039BB213801DE07A683B681B789B009B
:1053000013441B889BB223F4E24323F07003A7F8F5
:1053100064307A683B681B789B001A44B7F86430A5
:1053200043F07F4343F47F0343F4004343F080039F
:105330009BB213807B68FB657B68B3F850309BB2EF
:105340001A46FB6D1344FB653B681B78DA00FB6D66
:10535000134403F58063BB653B681B895B089BB204
:105360005B009AB2BB6D1A807B687B657B68B3F883
:1053700050309BB21A467B6D13447B653B681B78AB
:10538000DA007B6D134403F204433B653B685B89A1
:105390005B089BB25B009AB23B6D1A803B685B78FE
:1053A000002B40F093807A683B681B789B00134485
:1053B0001B88A7F84030B7F8403003F48043002B37
:1053C0001BD07A683B681B789B0013441B889BB2F8
:1053D00023F4E04323F07003FB877A683B681B7873
:1053E0009B001A44FB8F43F07F4343F47F0343F455
:1053F000404343F080039BB213807A683B681B787C
:105400009B0013441B88BB87BB8F03F04003002B1A
:105410001BD07A683B681B789B0013441B889BB2A7
:1054200023F4E04323F070037B877A683B681B78A2
:105430009B001A447B8F43F07F4343F47F0343F484
:10544000004343F0C0039BB213807A683B681B782B
:105450009B0013441B889BB223F4804323F070030A
:105460003B873B8F83F480533B873B8F83F4005310
:105470003B877A683B681B789B001A443B8F43F05C
:105480007F4343F47F0343F4004343F080039BB224
:1054900013807A683B681B789B0013441B889BB27F
:1054A00023F4E04323F04003FB867A683B681B78D3
:1054B0009B001A44FB8E43F07F4343F47F0343F485
:1054C000004343F080039BB21380BCE07A683B68E2
:1054D0001B789B0013441B88A7F84E30B7F84E305A
:1054E00003F48043002B1DD07A683B681B789B0037
:1054F00013441B889BB223F4E04323F07003A7F806
:105500004C307A683B681B789B001A44B7F84C30E3
:1055100043F07F4343F47F0343F4404343F080036D
:105520009BB213807A683B681B789B0013441B88EE
:10553000A7F84A30B7F84A3003F04003002B1DD0DB
:105540007A683B681B789B0013441B889BB223F44A
:10555000E04323F07003A7F848307A683B681B7873
:105560009B001A44B7F8483043F07F4343F47F036D
:1055700043F4004343F0C0039BB213803B68DB78E5
:10558000012B24D07A683B681B789B0013441B884E
:105590009BB223F4E04323F04003A7F84430B7F86C
:1055A000443083F02003A7F844307A683B681B78C6
:1055B0009B001A44B7F8443043F07F4343F47F0321
:1055C00043F4004343F080039BB213801DE07A68EC
:1055D0003B681B789B0013441B889BB223F4E04379
:1055E00023F04003A7F846307A683B681B789B009D
:1055F0001A44B7F8463043F07F4343F47F0343F443
:10560000004343F080039BB213807A683B681B78A9
:105610009B0013441B889BB223F4804323F0700348
:10562000A7F842307A683B681B789B001A44B7F8A9
:10563000423043F07F4343F47F0343F4004343F09D
:1056400080039BB2138097F86F3018467437BD46BD
:105650005DF8047B704700BF80B48DB000AF786008
:1056600039603B681B7B002B40F08E803B685B7889
:10567000002B44D07A683B681B789B0013441B883E
:10568000BB81BB8903F04003002B1BD07A683B68C9
:105690001B789B0013441B889BB223F4E04323F048
:1056A00070037B817A683B681B789B001A447B8976
:1056B00043F07F4343F47F0343F4004343F0C003CC
:1056C0009BB213807A683B681B789B0013441B884D
:1056D0009BB223F4E04323F040033B817A683B68AC
:1056E0001B789B001A443B8943F07F4343F47F03BC
:1056F00043F4004343F080039BB2138092E17A6845
:105700003B681B789B0013441B887B827B8A03F4D5
:105710008043002B1BD07A683B681B789B001344A6
:105720001B889BB223F4E04323F070033B827A682A
:105730003B681B789B001A443B8A43F07F4343F449
:105740007F0343F4404343F080039BB213807A68A5
:105750003B681B789B0013441B889BB223F4804357
:1057600023F07003FB817A683B681B789B001A4426
:10577000FB8943F07F4343F47F0343F4004343F04A
:1057800080039BB213804DE13B685B78002B40F0B7
:10579000A5807A683B681B789B0013441B883B8478
:1057A0003B8C03F48043002B1BD07A683B681B784A
:1057B0009B0013441B889BB223F4E04323F0700347
:1057C000FB837A683B681B789B001A44FB8B43F091
:1057D0007F4343F47F0343F4404343F080039BB291
:1057E00013807A683B681B789B0013441B88BB833B
:1057F000BB8B03F04003002B1BD07A683B681B78FF
:105800009B0013441B889BB223F4E04323F07003F6
:105810007B837A683B681B789B001A447B8B43F040
:105820007F4343F47F0343F4004343F0C0039BB240
:1058300013807A683B681B789B0013441B889BB2DB
:1058400023F4E04323F070033B837A683B681B78C2
:105850009B001A443B8B43F07F4343F47F0343F4A4
:10586000004343F0C0039BB213807A683B681B7807
:105870009B0013441B889BB223F4804323F07003E6
:10588000FB827A683B681B789B001A44FB8A43F0D2
:105890007F4343F47F0343F4004343F080039BB210
:1058A00013807A683B681B789B0013441B889BB26B
:1058B00023F4E04323F04003BB827A683B681B7803
:1058C0009B001A44BB8A43F07F4343F47F0343F4B5
:1058D000004343F080039BB21380A3E07A683B68E7
:1058E0001B789B0013441B88FB85FB8D03F48043CE
:1058F000002B1BD07A683B681B789B0013441B88E5
:105900009BB223F4E04323F07003BB857A683B68C5
:105910001B789B001A44BB8D43F07F4343F47F0305
:1059200043F4404343F080039BB213807A683B68A2
:105930001B789B0013441B887B857B8D03F0400301
:10594000002B1BD07A683B681B789B0013441B8894
:105950009BB223F4E04323F070033B857A683B68F5
:105960001B789B001A443B8D43F07F4343F47F0335
:1059700043F4004343F0C0039BB213807A683B6852
:105980001B789B0013441B889BB223F4E04323F055
:105990007003FB847A683B681B789B001A44FB8C7D
:1059A00043F07F4343F47F0343F4404343F08003D9
:1059B0009BB213807A683B681B789B0013441B885A
:1059C0009BB223F4E04323F04003BB847A683B6836
:1059D0001B789B001A44BB8C43F07F4343F47F0346
:1059E00043F4004343F080039BB213807A683B6822
:1059F0001B789B0013441B889BB223F4804323F045
:105A000070037B847A683B681B789B001A447B8C0C
:105A100043F07F4343F47F0343F4004343F08003A8
:105A20009BB21380002318463437BD465DF8047BD3
:105A3000704780B5C2B000AF07F58473A3F58273D9
:105A4000186007F58473A3F58473196007F58473F0
:105A5000A3F584731B685B78012B40F07B8607F508
:105A60008473A3F584731B689A6907F58473A3F59F
:105A700084731B681B699A4208D907F58473A3F5E0
:105A800084731B681B69C7F8043107E007F584734A
:105A9000A3F584731B689B69C7F8043107F5847309
:105AA000A3F584731B681B7B002B3AD107F5847325
:105AB000A3F584731B68596907F58473A3F5847390
:105AC0001B68DA88D7F804319BB207F58470A0F51B
:105AD0008270006801F03EFC07F58473A3F58273C1
